{
  "_format": "hh-sol-artifact-1",
  "contractName": "Emitter",
  "sourceName": "contracts/Emitter.sol",
  "abi": [
    {
      "inputs": [
        {
          "internalType": "address",
          "name": "initialOwner_",
          "type": "address"
        },
        {
          "internalType": "address",
          "name": "token_",
          "type": "address"
        },
        {
          "internalType": "address",
          "name": "vault_",
          "type": "address"
        }
      ],
      "stateMutability": "nonpayable",
      "type": "constructor"
    },
    {
      "inputs": [
        {
          "internalType": "address",
          "name": "owner",
          "type": "address"
        }
      ],
      "name": "OwnableInvalidOwner",
      "type": "error"
    },
    {
      "inputs": [
        {
          "internalType": "address",
          "name": "account",
          "type": "address"
        }
      ],
      "name": "OwnableUnauthorizedAccount",
      "type": "error"
    },
    {
      "inputs": [],
      "name": "ReentrancyGuardReentrantCall",
      "type": "error"
    },
    {
      "anonymous": false,
      "inputs": [
        {
          "indexed": false,
          "internalType": "address",
          "name": "from",
          "type": "address"
        },
        {
          "indexed": false,
          "internalType": "uint256",
          "name": "amount",
          "type": "uint256"
        }
      ],
      "name": "Filled",
      "type": "event"
    },
    {
      "anonymous": false,
      "inputs": [
        {
          "indexed": true,
          "internalType": "address",
          "name": "previousOwner",
          "type": "address"
        },
        {
          "indexed": true,
          "internalType": "address",
          "name": "newOwner",
          "type": "address"
        }
      ],
      "name": "OwnershipTransferred",
      "type": "event"
    },
    {
      "anonymous": false,
      "inputs": [
        {
          "indexed": false,
          "internalType": "address",
          "name": "by",
          "type": "address"
        }
      ],
      "name": "Started",
      "type": "event"
    },
    {
      "anonymous": false,
      "inputs": [],
      "name": "VaultIsEmpty",
      "type": "event"
    },
    {
      "anonymous": false,
      "inputs": [
        {
          "indexed": false,
          "internalType": "address",
          "name": "by",
          "type": "address"
        },
        {
          "indexed": false,
          "internalType": "address",
          "name": "to",
          "type": "address"
        },
        {
          "indexed": false,
          "internalType": "uint256",
          "name": "amount",
          "type": "uint256"
        }
      ],
      "name": "Withdrawn",
      "type": "event"
    },
    {
      "inputs": [],
      "name": "available",
      "outputs": [
        {
          "internalType": "uint256",
          "name": "",
          "type": "uint256"
        }
      ],
      "stateMutability": "view",
      "type": "function"
    },
    {
      "inputs": [],
      "name": "epoch",
      "outputs": [
        {
          "internalType": "uint8",
          "name": "",
          "type": "uint8"
        }
      ],
      "stateMutability": "view",
      "type": "function"
    },
    {
      "inputs": [
        {
          "internalType": "uint64",
          "name": "_time",
          "type": "uint64"
        }
      ],
      "name": "epochAt",
      "outputs": [
        {
          "internalType": "uint8",
          "name": "",
          "type": "uint8"
        }
      ],
      "stateMutability": "view",
      "type": "function"
    },
    {
      "inputs": [],
      "name": "epochLength",
      "outputs": [
        {
          "internalType": "uint64",
          "name": "",
          "type": "uint64"
        }
      ],
      "stateMutability": "view",
      "type": "function"
    },
    {
      "inputs": [
        {
          "internalType": "uint256",
          "name": "_amount",
          "type": "uint256"
        }
      ],
      "name": "fill",
      "outputs": [],
      "stateMutability": "nonpayable",
      "type": "function"
    },
    {
      "inputs": [],
      "name": "lastWithrawalAt",
      "outputs": [
        {
          "internalType": "uint64",
          "name": "",
          "type": "uint64"
        }
      ],
      "stateMutability": "view",
      "type": "function"
    },
    {
      "inputs": [],
      "name": "locked",
      "outputs": [
        {
          "internalType": "uint256",
          "name": "",
          "type": "uint256"
        }
      ],
      "stateMutability": "view",
      "type": "function"
    },
    {
      "inputs": [],
      "name": "owner",
      "outputs": [
        {
          "internalType": "address",
          "name": "",
          "type": "address"
        }
      ],
      "stateMutability": "view",
      "type": "function"
    },
    {
      "inputs": [],
      "name": "rate",
      "outputs": [
        {
          "internalType": "uint256",
          "name": "",
          "type": "uint256"
        }
      ],
      "stateMutability": "view",
      "type": "function"
    },
    {
      "inputs": [
        {
          "internalType": "uint8",
          "name": "_epoch",
          "type": "uint8"
        }
      ],
      "name": "rates",
      "outputs": [
        {
          "internalType": "uint256",
          "name": "",
          "type": "uint256"
        }
      ],
      "stateMutability": "view",
      "type": "function"
    },
    {
      "inputs": [],
      "name": "released",
      "outputs": [
        {
          "internalType": "uint256",
          "name": "",
          "type": "uint256"
        }
      ],
      "stateMutability": "view",
      "type": "function"
    },
    {
      "inputs": [],
      "name": "renounceOwnership",
      "outputs": [],
      "stateMutability": "nonpayable",
      "type": "function"
    },
    {
      "inputs": [],
      "name": "start",
      "outputs": [
        {
          "internalType": "bool",
          "name": "",
          "type": "bool"
        }
      ],
      "stateMutability": "nonpayable",
      "type": "function"
    },
    {
      "inputs": [],
      "name": "started",
      "outputs": [
        {
          "internalType": "uint64",
          "name": "",
          "type": "uint64"
        }
      ],
      "stateMutability": "view",
      "type": "function"
    },
    {
      "inputs": [],
      "name": "token",
      "outputs": [
        {
          "internalType": "contract IERC20",
          "name": "",
          "type": "address"
        }
      ],
      "stateMutability": "view",
      "type": "function"
    },
    {
      "inputs": [
        {
          "internalType": "address",
          "name": "newOwner",
          "type": "address"
        }
      ],
      "name": "transferOwnership",
      "outputs": [],
      "stateMutability": "nonpayable",
      "type": "function"
    },
    {
      "inputs": [],
      "name": "vault",
      "outputs": [
        {
          "internalType": "contract IVault",
          "name": "",
          "type": "address"
        }
      ],
      "stateMutability": "view",
      "type": "function"
    },
    {
      "inputs": [],
      "name": "withdraw",
      "outputs": [
        {
          "internalType": "bool",
          "name": "",
          "type": "bool"
        }
      ],
      "stateMutability": "nonpayable",
      "type": "function"
    }
  ],
  "bytecode": "0x610fe0604052678ac7230489e8000060e090815267865f82c71ff83a006101005267821bacf379c0faa061012052677dfa7eb94ee05430610140526779fade83511e81606101605267761bbbac2c4b5e306101805267725c0e35e782f5606101a052676ebad68394852ab06101c052676b371d153a623a906101e0526767cff245e95c9ff0610200526764846e0be66fea7061022052676153afbadd7bcc1061024052675e3cddc8099edff061026052675b3f259043cfbe6061028052675859bb1fe843bb406102a05267558bd8fc83b633906102c0526752d4bff03a12b2b06102e052675033b6d6d885009061030052674da80a6c8559776061032052674b310d1e008edd00610340526748ce16da685fd8c06103605267467e84e675742a7061038052674441b9b122ce55f06103a0526742171ca9b5e7d8b06103c052673ffe1a171bd1a2606103e052673df622f090824f6061040052673bfeacb785da173061042052673a173152c03540406104405267383f2eea9ebae8506104605267367627c685e289f0610480526734bba22b62fd0d706104a05267330f283b3fd43d406104c05267317047d5ddbd01e06104e052672fde927a4fc22e9061050052672e599d298bcd972061052052672ce10049eaf7fca061054052672b74578b916a70c061056052672a1341cdb675a460610580526728bd6104c5c273906105a0526727725a2152b812a06105c052672631d4f7d76a1cf06105e0526724fb7c29389a73d0610600526723cefd0c088d3660610620526722ac0796829f7600610640526721924e4939c468d061066052672081861a743ac99061068052671f7966622efbd6c06106a052671e79a8c6c38f80206106c052671d82092a2b2029e06106e052671c924597d9ceb98061070052671baa1e332d7280f061072052671ac955266b17d390610740526719efae9246b39e406107605267191cf07df0aacb4061078052671850e2c7a4eda5506107a05267178b4f15b788ff406107c0526716cc00c81ab420606107e052671612c4ea5a7d9f606108005267155f6a260a5e1b40610820526714b1c0b5a1113d60610840526714099a57bf35f01061086052671366ca42dd525350610880526712c925195df2d4706108a05267123080de00b76b906108c05267119cb4e8b33b2f506108e05267110d99dbbcdb9c50610900526710830999427d311061092052670ffcdf391f8341b061094052670f7af6ff1144bd3061096052670efd2e513261dc9061098052670e8363aec37040606109a052670e0d76a73e89bda06109c052670d9b47d1b35cdb986109e052670d2cb8c46972d088610a0052670cc1ac0cc66f1ec0610a2052670c5a05277621b818610a4052670bf5a878d25450e8610a6052670b947b45884d0060610a8052670b3663ab7a10d298610aa052670adb489ad98101f8610ac052670a8311cf7b7c7600610ae052670a2da7ca613e8310610b00526709daf3cb76425238610b205267098adfcb80ffe0f0610b405267093d567644e5d8a8610b60526708f24324d3ffce78610b80526708a991d80ec5b5f0610ba0526708632f33509d7b50610bc05267081f087747a384f8610be0526707dd0b7cf65a7888610c005267079d26b0ddedeac8610c205267075f490e4fbe0598610c4052670723621ae4f54318610c60526706e961e21af2dae8610c80526706b138f1135ef228610ca05267067ad85276c65940610cc052670646318a78a5c050610ce0526706133692fbd44df0610d00526705e1d9d7d646d6be610d20526705b20e33332cc730610d4052670583c6ea127063d0610d6052670556f7a8e4ab5c30610d805267052b948042a88ce8610da05267050191e1bf934458610dc0526704d8e49cd4fad588610de0526704b181dbe7d932d0610e005267048b5f2165d0acf8610e20526704667244f9dca440610e4052670442b170d7b65f90610e6052670420131f1d356830610e80526703fe8e1748f940a8610ea0526703de196bc5af0c40610ec0526703beac77894beaa0610ee0526703a03edbc799dbf0610f0052670382c87db77a35e0610f205267036641846a4578a8610f405267034aa256b4b58b00610f605267032fe39928cbb588610f8052670315fe2c20286d20610fa0526702fceb29d64f31e4610fc0526200062e9060029060786200070f565b5062278d0060c0523480156200064357600080fd5b5060405162001bd338038062001bd38339810160408190526200066691620007ef565b826001600160a01b0381166200069657604051631e4fbdf760e01b81526000600482015260240160405180910390fd5b620006a181620006bf565b50600180556001600160a01b039182166080521660a0525062000839565b600080546001600160a01b038381166001600160a01b0319831681178455604051919092169283917f8be0079c531659141344cd1fd0a4f28419497f9722a3daafe3b4186f6b6457e09190a35050565b601e83019183908215620007a95791602002820160005b838211156200077257835183826101000a8154816001600160401b0302191690836001600160401b03160217905550926020019260080160208160070104928301926001030262000726565b8015620007a75782816101000a8154906001600160401b03021916905560080160208160070104928301926001030262000772565b505b50620007b7929150620007bb565b5090565b5b80821115620007b75760008155600101620007bc565b80516001600160a01b0381168114620007ea57600080fd5b919050565b6000806000606084860312156200080557600080fd5b6200081084620007d2565b92506200082060208501620007d2565b91506200083060408501620007d2565b90509250925092565b60805160a05160c051611332620008a1600039600081816101bd015281816108dd015281816110360152611079015260008181610292015281816104f20152818161061f01526106d60152600081816102b901528181610657015261079a01526113326000f3fe608060405234801561001057600080fd5b50600436106101365760003560e01c80638da5cb5b116100b2578063cf30901211610081578063f2fde38b11610066578063f2fde38b1461027a578063fbfa77cf1461028d578063fc0c546a146102b457600080fd5b8063cf3090121461025d578063e68f4f431461026657600080fd5b80638da5cb5b1461021f578063900cf0cf14610244578063961325211461024c578063be9a65551461025557600080fd5b806348a0d75411610109578063715018a6116100ee578063715018a6146101df5780637d60d355146101e75780637db8c8631461020c57600080fd5b806348a0d754146101b057806357d775f8146101b857600080fd5b80631f2698ab1461013b5780632c4e722e1461016d5780633ccfd60b146101835780633fda53891461019b575b600080fd5b60205461014f9067ffffffffffffffff1681565b60405167ffffffffffffffff90911681526020015b60405180910390f35b6101756102db565b604051908152602001610164565b61018b6103cd565b6040519015158152602001610164565b6101ae6101a93660046110d9565b610740565b005b610175610855565b61014f7f000000000000000000000000000000000000000000000000000000000000000081565b6101ae6108a6565b6101fa6101f53660046110f2565b6108ba565b60405160ff9091168152602001610164565b61017561021a366004611132565b610921565b6000546001600160a01b03165b6040516001600160a01b039091168152602001610164565b6101fa61098a565b61017560215481565b61018b6109f6565b61017560225481565b60235461014f9067ffffffffffffffff1681565b6101ae61028836600461114f565b610b1b565b61022c7f000000000000000000000000000000000000000000000000000000000000000081565b61022c7f000000000000000000000000000000000000000000000000000000000000000081565b6000306001600160a01b0316637db8c863306001600160a01b031663900cf0cf6040518163ffffffff1660e01b8152600401602060405180830381865afa15801561032a573d6000803e3d6000fd5b505050506040513d601f19601f8201168201806040525081019061034e9190611178565b6040517fffffffff0000000000000000000000000000000000000000000000000000000060e084901b16815260ff9091166004820152602401602060405180830381865afa1580156103a4573d6000803e3d6000fd5b505050506040513d601f19601f820116820180604052508101906103c89190611195565b905090565b60006103d7610b6f565b60205467ffffffffffffffff166000036104385760405162461bcd60e51b815260206004820152600b60248201527f4e6f74207374617274656400000000000000000000000000000000000000000060448201526064015b60405180910390fd5b6000306001600160a01b03166348a0d7546040518163ffffffff1660e01b8152600401602060405180830381865afa158015610478573d6000803e3d6000fd5b505050506040513d601f19601f8201168201806040525081019061049c9190611195565b9050600081116104ee5760405162461bcd60e51b815260206004820152601160248201527f4e6f7468696e6720746f20756e6c6f636b000000000000000000000000000000604482015260640161042f565b60007f00000000000000000000000000000000000000000000000000000000000000006001600160a01b03166318160ddd6040518163ffffffff1660e01b8152600401602060405180830381865afa15801561054e573d6000803e3d6000fd5b505050506040513d601f19601f820116820180604052508101906105729190611195565b116105aa576040517f61e9d8b353dc7caf1bcc6ff43c7d59200a77ce73afefa647d1103192af4b517a90600090a16000915050610734565b80602160008282546105bc91906111c4565b9250508190555080602260008282546105d591906111d7565b90915550506023805467ffffffffffffffff19164267ffffffffffffffff161790556040517fa9059cbb0000000000000000000000000000000000000000000000000000000081527f00000000000000000000000000000000000000000000000000000000000000006001600160a01b039081166004830152602482018390527f0000000000000000000000000000000000000000000000000000000000000000169063a9059cbb906044016020604051808303816000875af11580156106a0573d6000803e3d6000fd5b505050506040513d601f19601f820116820180604052508101906106c491906111ea565b50604080513381526001600160a01b037f00000000000000000000000000000000000000000000000000000000000000001660208201529081018290527fd1c19fbcd4551a5edfb66d43d2e337c04837afda3482b42bdf569a8fccdae5fb9060600160405180910390a160019150505b61073d60018055565b90565b610748610b6f565b806022600082825461075a91906111c4565b90915550506040517f23b872dd000000000000000000000000000000000000000000000000000000008152336004820152306024820152604481018290527f00000000000000000000000000000000000000000000000000000000000000006001600160a01b0316906323b872dd906064016020604051808303816000875af11580156107eb573d6000803e3d6000fd5b505050506040513d601f19601f8201168201806040525081019061080f91906111ea565b5060408051338152602081018390527fd37cf472a3f5580ea615126f95c25aaaea8c85b6b4036f6430c35a151812c855910160405180910390a161085260018055565b50565b60205460009067ffffffffffffffff1681036108715750600090565b60235460009061088b9067ffffffffffffffff1642610bb2565b9050806022541161089e576022546108a0565b805b91505090565b6108ae610e9e565b6108b86000610ee4565b565b60205460009067ffffffffffffffff1681036108d857506000919050565b6020547f0000000000000000000000000000000000000000000000000000000000000000906109119067ffffffffffffffff168461120c565b61091b9190611234565b92915050565b600060788260ff16101561096c5760028260ff166078811061094557610945611269565b60048104919091015460039091166008026101000a900467ffffffffffffffff1692915050565b600261097a600160786111d7565b6078811061094557610945611269565b604051637d60d35560e01b815267ffffffffffffffff421660048201526000903090637d60d35590602401602060405180830381865afa1580156109d2573d6000803e3d6000fd5b505050506040513d601f19601f820116820180604052508101906103c89190611178565b6000610a00610e9e565b610a08610b6f565b600060225411610a5a5760405162461bcd60e51b815260206004820152600960248201527f4e6f20746f6b656e730000000000000000000000000000000000000000000000604482015260640161042f565b60205467ffffffffffffffff1615610ab45760405162461bcd60e51b815260206004820152600f60248201527f416c726561647920737461727465640000000000000000000000000000000000604482015260640161042f565b6020805467ffffffffffffffff421667ffffffffffffffff1991821681178355602380549092161790556040513381527f27029695aa5f602a4ee81f4c32dfa86e562f200a17966496f3a7c3f2ec0f9417910160405180910390a150600161073d60018055565b610b23610e9e565b6001600160a01b038116610b66576040517f1e4fbdf70000000000000000000000000000000000000000000000000000000081526000600482015260240161042f565b61085281610ee4565b600260015403610bab576040517f3ee5aeb500000000000000000000000000000000000000000000000000000000815260040160405180910390fd5b6002600155565b60008167ffffffffffffffff168367ffffffffffffffff1603610bd75750600061091b565b600080610be48585610f4c565b915091508060ff168260ff1603610c7e57604051637db8c86360e01b815260ff831660048201523090637db8c86390602401602060405180830381865afa158015610c33573d6000803e3d6000fd5b505050506040513d601f19601f82011682018060405250810190610c579190611195565b610c61868661120c565b67ffffffffffffffff16610c75919061127f565b9250505061091b565b600080610c8a8461102e565b604051637db8c86360e01b815260ff8716600482015267ffffffffffffffff919091169250600091503090637db8c86390602401602060405180830381865afa158015610cdb573d6000803e3d6000fd5b505050506040513d601f19601f82011682018060405250810190610cff9190611195565b67ffffffffffffffff8916610d158460016111c4565b610d1f91906111d7565b610d29919061127f565b90506000610d38866001611296565b90505b8460ff168160ff161015610dee57610d528661102e565b604051637db8c86360e01b815260ff8416600482015267ffffffffffffffff9283169650911693503090637db8c86390602401602060405180830381865afa158015610da2573d6000803e3d6000fd5b505050506040513d601f19601f82011682018060405250810190610dc69190611195565b610dd085856111d7565b610dda919061127f565b610de490836111c4565b9150600101610d3b565b50610df88461102e565b50604051637db8c86360e01b815260ff8616600482015267ffffffffffffffff9190911693503090637db8c86390602401602060405180830381865afa158015610e46573d6000803e3d6000fd5b505050506040513d601f19601f82011682018060405250810190610e6a9190611195565b610e7e8467ffffffffffffffff8a166111d7565b610e88919061127f565b610e9290826111c4565b98975050505050505050565b6000546001600160a01b031633146108b8576040517f118cdaa700000000000000000000000000000000000000000000000000000000815233600482015260240161042f565b600080546001600160a01b038381167fffffffffffffffffffffffff0000000000000000000000000000000000000000831681178455604051919092169283917f8be0079c531659141344cd1fd0a4f28419497f9722a3daafe3b4186f6b6457e09190a35050565b604051637d60d35560e01b815267ffffffffffffffff8316600482015260009081903090637d60d35590602401602060405180830381865afa158015610f96573d6000803e3d6000fd5b505050506040513d601f19601f82011682018060405250810190610fba9190611178565b604051637d60d35560e01b815267ffffffffffffffff851660048201523090637d60d35590602401602060405180830381865afa158015610fff573d6000803e3d6000fd5b505050506040513d601f19601f820116820180604052508101906110239190611178565b915091509250929050565b60008061105e7f000000000000000000000000000000000000000000000000000000000000000060ff85166112af565b602054611075919067ffffffffffffffff166112db565b60017f00000000000000000000000000000000000000000000000000000000000000006110a28683611296565b60ff166110af91906112af565b6020546110c6919067ffffffffffffffff166112db565b6110d0919061120c565b91509150915091565b6000602082840312156110eb57600080fd5b5035919050565b60006020828403121561110457600080fd5b813567ffffffffffffffff8116811461111c57600080fd5b9392505050565b60ff8116811461085257600080fd5b60006020828403121561114457600080fd5b813561111c81611123565b60006020828403121561116157600080fd5b81356001600160a01b038116811461111c57600080fd5b60006020828403121561118a57600080fd5b815161111c81611123565b6000602082840312156111a757600080fd5b5051919050565b634e487b7160e01b600052601160045260246000fd5b8082018082111561091b5761091b6111ae565b8181038181111561091b5761091b6111ae565b6000602082840312156111fc57600080fd5b8151801515811461111c57600080fd5b67ffffffffffffffff82811682821603908082111561122d5761122d6111ae565b5092915050565b600067ffffffffffffffff8084168061125d57634e487b7160e01b600052601260045260246000fd5b92169190910492915050565b634e487b7160e01b600052603260045260246000fd5b808202811582820484141761091b5761091b6111ae565b60ff818116838216019081111561091b5761091b6111ae565b67ffffffffffffffff8181168382160280821691908281146112d3576112d36111ae565b505092915050565b67ffffffffffffffff81811683821601908082111561122d5761122d6111ae56fea2646970667358221220cd11da97c57e5aa0dc5eecbb30db865adb776907eaf5622360d17e942d4d7d4664736f6c63430008180033",
  "linkReferences": {},
  "deployedLinkReferences": {}
}